:100000000C94AD010C94D5010C94D5010C94D50140
:100010000C94D5010C94D5010C94D5010C94D50108
:100020000C94D5010C94D5010C9453090C94C2097D
:100030000C94D5010C94D5010C94D5010C94D501E8
:100040000C94D5010C94D5010C94D5010C94D501D8
:100050000C94D5010C94D5010C94D5010C9409098C
:100060000C94D5010C94D5010C94D5010C94D501B8
:100070000C94D5010C94D5010C94D5010C94D501A8
:100080000C94D5010C94D5010C94D5010C94D50198
:100090000C94D5010C94D5010C94D5010C94D50188
:1000A0000C94D5010C94D5010C94D5014A6F67636B
:1000B0006F6E006E6547636F6E00466C69676874AB
:1000C000737469636B004475616C2053686F636B74
:1000D0002032004475616C2053686F636B00446983
:1000E000676974616C00556E6B6E6F776E00284F98
:1000F0007574206F6620626F756E64732900477592
:1001000069746172204865726F004475616C205398
:10011000686F636B20576972656C65737300447513
:10012000616C2053686F636B00556E6B6E6F776EFA
:10013000000000000200090F0000030401000C0091
:1001400000000000000000000000000000000000AF
:1001500005010905A10115002501350045017501BD
:100160009510050919012910810205012507463B53
:100170000175049501651409398142650095018175
:100180000126FF0046FF00093009310932093575A3
:1001900008950481020600FF0920950181020A21C9
:1001A0002695089102C0080B000202020000090413
:1001B00000000102020000052400100105240101D5
:1001C000010424020605240600010705810310002E
:1001D0004009040100020A00000007050202400075
:1001E0000007058302400000040309041201000215
:1001F000EF0201400D0F9200000101020301484F80
:10020000524900506F6B6B656E20546F75726E6152
:100210006D656E742044582050726F2050616400E8
:1002200052656164792100436F6E74726F6C6C6506
:1002300072206C6F7374203A2800436F6E74726F73
:100240006C6C65722050726F746F636F6C20697391
:100250003A2000E600DE00D300C600BA00B300ACCE
:1002600000EE0043616E6E6F7420657869742063E0
:100270006F6E666967206D6F64650043616E6E6FB7
:100280007420656E61626C6520616E616C6F6720C1
:10029000627574746F6E730043616E6E6F74206567
:1002A0006E61626C6520616E616C6F67207374694A
:1002B000636B7300436F6E74726F6C6C6572205465
:1002C0007970652069733A200029011E010A01FE38
:1002D00000EE0043616E6E6F7420656E746572206F
:1002E000636F6E666967206D6F646500436F6E743F
:1002F000726F6C6C657220666F756E642100000011
:100300000000250028002B002E0031000000000016
:10031000240027002A002D003000040404040403F4
:100320000405020202020403020202020606060695
:1003300006060404020202040404080201104080BC
:1003400040102040804080080204018040201002BC
:100350000110801020404020270C11241FBECFEF39
:10036000DAE0DEBFCDBF11E0A0E0B1E0E6E8F3E205
:1003700002C005900D92A238B107D9F722E0A2E899
:10038000B1E001C01D92A137B207E1F711E0CDEA5B
:10039000D1E004C02197FE010E94BB11CC3AD107E5
:1003A000C9F70E94480C0C94C1110C94000090E015
:1003B000FC01E75CFC4F2491865E9C4FFC0184911C
:1003C000882399F090E0880F991FFC01E45FFC4FAF
:1003D000A591B491FC01E250FD4F859194918FB7A6
:1003E000F894EC91E22BEC938FBF0895CF93DF93B9
:1003F000FC0181819091D101482F490F5527551F4C
:10040000483051059CF5A281B381109709F52DEC78
:1004100031E03383228320812093CF018093D00168
:100420008091D201820F80832091D301A22FB091BD
:10043000D4018A2F821B8917E8F481813D91C82F4E
:10044000D0E0C45FDE4F38838F5F8183F2CFD90164
:1004500018962D913C91199721153105C1F72DEC76
:1004600031E019963C932E931897D5CF80E0DF9119
:10047000CF91089581E0FBCFFC018091CC018823CE
:1004800011F13FB7F89482E08093E9002091F200E7
:10049000822F90E01816190614F481E090E088236A
:1004A00039F0289844E64093CB014091F100408315
:1004B000222339F02091F200211103C02BE6209372
:1004C000E8003FBF08958FEF9FEF08953FB7F8947E
:1004D0008091C7019091C801A091C901B091CA0152
:1004E00026B5A89B05C02F3F19F00196A11DB11D8F
:1004F0003FBFBA2FA92F982F8827BC01CD01620FCB
:10050000711D811D911D43E0660F771F881F991F84
:100510004A95D1F708958F929F92AF92BF92CF9252
:10052000DF92EF92FF924B015C010E9466026B0129
:100530007C010E9466026C197D098E099F09683E44
:10054000734081059105A8F321E0821A9108A10862
:10055000B10888EEC80E83E0D81EE11CF11C81149E
:100560009104A104B10429F7FF90EF90DF90CF90A0
:10057000BF90AF909F908F9008952FB7F89460919F
:10058000C3017091C4018091C5019091C6012FBF34
:1005900008954091AF015091B0012091AD0130918B
:1005A000AE0142175307B4F49091E8009570E1F35F
:1005B0009091E80092FD19C08093F1008091AF0105
:1005C0009091B00101968F739927892B19F48EEFC2
:1005D0008093E8008091AF019091B00101969093D3
:1005E000B0018093AF0181E0089580E00895DF922B
:1005F000EF92FF920F931F93CF93DF93D82E8A0130
:10060000EB017B01E40EF51ECE15DF0559F0D7FE98
:1006100012C0FE0184910E94C90221968111F4CF7B
:100620000FEF1FEFC801DF91CF911F910F91FF9046
:10063000EF90DF9008958881EECF2FB7F894877000
:100640008093E9009091E800892F807295FF04C0A3
:100650009091F20080E4891B2FBF08957F928F92C2
:100660009F92AF92BF92CF92DF92EF92FF920F9341
:100670001F93CF93DF93C82E8B017A018091CC0119
:10068000811110C08FEF9FEFDF91CF911F910F91DC
:10069000FF90EF90DF90CF90BF90AF909F908F90A2
:1006A0007F9008958091B30180FF05C08091E000A4
:1006B00082608093E000CE2DDF2DD12C8AEFB82E02
:1006C0008C2D8770982E8C2D8072882E8C2D8074A6
:1006D000782E9AE3A92E209719F4DD2009F452C050
:1006E0008C2D0E941D0381110AC0BA94BB2051F2C7
:1006F00061E070E080E090E00E948B02ECCF8C170C
:100700001D0611F00CF08C2F9FB7F8949092E90021
:100710002091E80025FD02C09FBFDDCF282F30E0EB
:10072000C21BD30B882029F08150A0F01092F10059
:10073000FBCFF801C7FC0AC0815050F041914093B3
:10074000F100FACF44914093F10031968150D0F7F7
:10075000020F131FDD2021F0A092E800D12CDCCF86
:100760008091E80085FD07C0A092E800DD24D394C5
:10077000209791F2F3CF209779F6772069F2A09233
:10078000E800CACF5D9884E68093B201C7017CCFB0
:10079000615030F02091F100FC0120830196F8CFE8
:1007A000289884E68093CB0108958091A50181115A
:1007B0000DC082E08093A10184E08093A201109299
:1007C000A4011092A30181E08093A50181EA91E048
:1007D00008950F931F93CF93DF931F92CDB7DEB78A
:1007E00082E0898342E450E066EA71E080E80E949A
:1007F000F7020E94D503DC0112960D911C910115A0
:10080000110589F0D801ED91FC910280F381E02D72
:10081000BE016F5F7F4FC801099597FD04C0F801C5
:1008200000851185ECCF89810F90DF91CF911F91C9
:100830000F910895CF93DF93EC0180910B018823F2
:1008400031F083E00E942E031816190634F081E07F
:1008500090E09B838A8380E090E0DF91CF910895C0
:10086000CF93DF931F92CDB7DEB76983DC01ED91A3
:10087000FC910280F381E02D41E050E0BE016F5F0A
:100880007F4F09950F90DF91CF9108950F931F939C
:10089000CF93DF938C01D0E0C0E0F801EC0FFD1F97
:1008A0006491662341F08EED91E00E943004892B23
:1008B00011F02196F2CFCE01DF91CF911F910F91D0
:1008C0000895CF93DF930E944604EC0142E050E08C
:1008D0006FE771E08EED91E00E941A048C0F9D1F6E
:1008E000DF91CF91089583E08093E9008091F20039
:1008F000882319F08AE38093E800089583E00E943A
:100900001D0390E00895CF93DF931F92CDB7DEB71C
:10091000FC018485958597FD08C02FEF3FEF358753
:1009200024870F90DF91CF910895CE0101960E9408
:100930003C02019719F4898190E0F3CF8FEF9FEF8C
:10094000F0CF0F931F93CF93DF931F92CDB7DEB7F6
:100950008C01FC018485958597FF0BC0CE01019623
:100960000E943C02019771F4898190E0F80195871B
:100970008487F801848595850F90DF91CF911F9131
:100980000F9108958FEF9FEFF1CFFC01848595853E
:1009900097FD0BC09FB7F89482E08093E9008091A7
:1009A000F2009FBF90E0019608959FB7F89482E00F
:1009B0008093E9008091F2009FBF90E00895DC01F0
:1009C000FB0112962C9112978481958128171906A4
:1009D00041F491818081813A31F49D7F81E09130B1
:1009E00009F080E008958132E1F79B3029F482819B
:1009F0001F968C9381E008959A3099F782815096E2
:100A00008C93F8CFDC01FB0188E4808389E4818347
:100A100084E482831D969C911D979F709F5B9383B6
:100A20001D968D919C9124E0969587952A95E1F7E6
:100A30008F708F5B848385E00895EF92FF920F9310
:100A40001F93CF93DF93FB012081213871F5238120
:100A5000223259F5DC0112964C91248135814217DE
:100A6000130619F5EC010B851C85F12CE12C011501
:100A7000110589F0F801448155816281738180E814
:100A80000E94F7028F3F980749F0E80EF91ED8013F
:100A90000D911C91ECCF81E08F87C701DF91CF9141
:100AA0001F910F91FF90EF90089590E080E0F6CFB6
:100AB000CF93DF93CDB7DEB769970FB6F894DEBF5B
:100AC0000FBECDBFFC01DB018C918F5F8C939E012B
:100AD0002D5F3F4F8DE0D9011D928A95E9F729E0FE
:100AE000298384E08A8391E09D8383E08E832A8733
:100AF00021E22B879C879D879F8722E2288B27E016
:100B00002B8B25E02C8B8E8B20E430E0388F2F8BC5
:100B1000998F82818B8395858685998B8A8B83813A
:100B200080688D8B49E150E0BE016F5F7F4F80E0B0
:100B30000E94F70269960FB6F894DEBF0FBECDBFD4
:100B4000DF91CF9108956EBD00000DB407FEFDCF7B
:100B50008EB508952A9A299A599A80E690E00197CD
:100B6000F1F708955998EFE6F2E0908181819CBDFC
:100B70008DBD80E690E00197F1F708958F929F92E6
:100B8000AF92BF92CF92DF92EF92FF920F931F939B
:100B9000CF93DF937C016B015A01022F10E0D0E06C
:100BA000C0E080E6882E912CC017D107E1F0D70174
:100BB000ED91FC910480F581E02D6AE5C114D1042A
:100BC00021F0D601AC0FBD1F6C91C7010995A1148E
:100BD000B10421F0F501EC0FFD1F8083C4010197E2
:100BE000F1F72196E1CFDF91CF911F910F91FF9007
:100BF000EF90DF90CF90BF90AF909F908F9008952F
:100C0000CF92DF92EF92FF920F931F93CF93DF93D8
:100C10007C016B01D42F8C010E5F1F4F23E0A801D4
:100C20000E94BE05F70123812F3F61F410E000E030
:100C3000C801DF91CF911F910F91FF90EF90DF904E
:100C4000CF90089584818A3511F08111EFCF2F70F4
:100C5000C22FCC0FD33059F0B6016D5F7F4F2DEF0F
:100C60002D0FA7014B5F5F4FC7010E94BE052C2FC0
:100C70002D1B2D5FE9F24D2F50E0CA01820F911D0F
:100C80008197A4F6400F511F70E060E0C7010E94F9
:100C9000BE05CECFCF92DF92EF92FF920F931F93BC
:100CA000CF93DF93EC010E94BD026B017C01E881D0
:100CB000F9810190F081E02DCE01099544E063E1D6
:100CC00071E0CE010E9400068C01E881F98102806A
:100CD000F381E02DCE0109950115110529F0F801E8
:100CE0008181807F803F11F56AE070E080E090E0D4
:100CF0000E948B020E94BD026C197D098E099F091A
:100D00006B3F71058105910590F2C0E064EF71E0E1
:100D100080E090E00E948B028C2FDF91CF911F9199
:100D20000F91FF90EF90DF90CF900895C1E0EECF4C
:100D3000EF92FF920F931F93CF93DF9300D000D0D9
:100D40001F92CDB7DEB78C01DC019C961C929C975C
:100D5000D9961C92D997ED91FC910190F081E02DEC
:100D60000995F80182AD43E06CE171E08823A9F0B8
:100D700085E0ECE1F1E0DE01119601900D928A959B
:100D8000E1F7D801DB968C91DB978C83DC968C9114
:100D90008D8345E0BE016F5F7F4FC8010E94000652
:100DA0007C01D801ED91FC910280F381E02DC80116
:100DB0000995E114F10441F0F7018181807F803FC2
:100DC00081F4C8010E944A0680E00F900F900F90B6
:100DD0000F900F90DF91CF911F910F91FF90EF90A7
:100DE0000895D80194968D919C91959793969C9394
:100DF0008E9392972381348195963C932E9394976A
:100E000081818937B9F483E090E097969C938E9323
:100E10009697D80196968D919C91979784309105DD
:100E200091F150F58230910571F1039709F441C0B9
:100E300081E0CBCF982F907F903721F482E090E033
:100E4000D801E3CF903531F484E090E0F80197A326
:100E500086A3DFCF833219F485E090E0F1CF903E96
:100E600019F486E090E0F2CF833619F487E090E041
:100E7000E7CF81E090E0EACF8630910509F45CC0CD
:100E800030F10797A9F681E0D8019C968C939C9746
:100E9000F70185819A968C939A9786819B968C937D
:100EA0009B97878198968C939897808599968C9339
:100EB000BFCF81E0F80181AFF70139969D96C70158
:100EC000459621912D93E817F907D9F7DCCF81E0FA
:100ED0009C968C939C97F701958198969C939897F4
:100EE000D9968C93D9978681D3968C93D3979781F3
:100EF000D4969C93D4974085D5964C93D59797FFDD
:100F000005C03F7795963C932E93949787FF0AC030
:100F1000D80194968D919C9195979F7B95969C93E3
:100F20008E939497403F08F483CFF80184A195A154
:100F30009B7F95A384A37CCF81E09C968C93F70143
:100F40009681858197FD0DC087FD8FE7D801989622
:100F50008C93D80198968C919897805898968C93FA
:100F600067CF813808F481E8F80180A7F2CFCF93EA
:100F70008091990181117BC080918901811113C0F9
:100F8000109284011092830180E591E09093860194
:100F90008093850186E590E0909388018093870196
:100FA00081E0809389018091B501811130C0C1E059
:100FB000C093D101C093D20187ED91E09093D40109
:100FC0008093D3011092D6011092D50189E491E06B
:100FD0009093CE018093CD011092D9011092D80147
:100FE0001092DB011092DA01C093DC01C093DD01A5
:100FF00081EC8093D7010E94D5030E94F60189E419
:1010000091E09093CE018093CD01C093B501E09122
:10101000D801F091D901309779F583E891E0909368
:10102000D9018093D8018091DA019091DB01209160
:10103000870130918801820F931F9093DB01809389
:10104000DA0198E0E1E9F1E0DF01892F1D928A954C
:10105000E9F780E88093940180939501809396014D
:10106000809397019093930181E08093990181E9A6
:1010700091E0CF910895FC01808191810097D9F78B
:1010800083E891E091838083CECF1F93CF93DF934A
:10109000EC01519A599A229A2A9A219A299A2398CC
:1010A0002B982B9A1FB7F8948091820181115AC016
:1010B0008BE293E0FC0124914AE453E0FA0134917D
:1010C000E22FF0E0EE0FFF1FE45FFC4FA591B4911B
:1010D0002C91322309F037C0E2E4F1E02491FA01C7
:1010E0004491FC018491882309F42DC02223E9F066
:1010F00021502F30D0F4E22FF0E0EF57F74F0C944F
:10110000BB11E408E8089008DC08E0089508950899
:101110009508EB08F108F508F908FF089508030998
:10112000909180009F7790938000E82FF0E0EE0F81
:10113000FF1FE250FD4FA591B4918FB7F8949C9199
:10114000492B4C938FBF81E10E94D7018CB5806100
:101150008CBD8CB580648CBD8FE00E94D70180E18E
:101160000E94D701809182018F5F809382011FBF0F
:1011700080E888A789A78AA78BA71CA68CE0FE0118
:10118000BD96DF011D928A95E9F71FA21EA21AAE35
:101190001BAE1CAE15E0CE010E94980661E070E027
:1011A00080E090E00E948B021150A9F7CE01DF9100
:1011B000CF911F910C949806909180009F7DB3CFA2
:1011C00090918000977FAFCF94B59F7794BDADCFBE
:1011D00094B59F7DFBCF909190009F779093900066
:1011E000A4CF909190009F7DF9CF90919000977F30
:1011F000F5CF9091C0009F779093C00096CF9091CB
:10120000C0009F7DF9CF9091C200977F9093C2005C
:101210008CCF1F920F920FB60F9211242F933F93F2
:101220008F939F93AF93BF938091C3019091C4011B
:10123000A091C501B091C6013091C20126E0230FF3
:101240002D3758F50296A11DB11D2093C201809340
:10125000C3019093C401A093C501B093C6018091CE
:10126000C7019091C801A091C901B091CA0101962E
:10127000A11DB11D8093C7019093C801A093C9011E
:10128000B093CA01BF91AF919F918F913F912F91E0
:101290000F900FBE0F901F90189529E8230F03960B
:1012A000A11DB11DD2CF1F920F920FB60F92112424
:1012B0008F939F938091E1009091E100937F9093B1
:1012C000E10083FF0FC01092E90091E09093EB00E2
:1012D0001092EC0092E39093ED001092CC0198E014
:1012E0009093F00082FF22C093E09093E9009091E8
:1012F000F200992319F09AE39093E8009091B201DB
:10130000992341F09091B20191509093B2019111C3
:1013100001C05D9A9091CB01992341F09091CB014E
:1013200091509093CB01911101C0289A84FF18C06D
:101330008091E2008E7E81608093E2008091E100E6
:101340008F7E8093E1008091B3018E7E80618093D7
:10135000B3019F918F910F900FBE0F901F90189522
:1013600080FFF7CF8091E2008E7E80618093E20063
:101370008091E1008E7E8093E1008091B3018E7EAA
:101380008160E5CF1F920F920FB60F921124CF927A
:10139000DF92EF92FF920F931F932F933F934F9300
:1013A0005F936F937F938F939F93AF93BF93EF93CD
:1013B000FF93CF93DF93CDB7DEB76C97DEBFCDBF82
:1013C0001092E9008091E80083FF25C068E0CE011B
:1013D00045960E94C80382EF8093E8008D8987FFBD
:1013E00039C09091E80090FFFCCF982F907609F0DB
:1013F00034C19E894F89588D2F89F88C911131C045
:10140000803861F58091B4018093F1001092F10071
:101410008EEF8093E8006C960FB6F894DEBF0FBE97
:10142000CDBFDF91CF91FF91EF91BF91AF919F9190
:101430008F917F916F915F914F913F912F911F916C
:101440000F91FF90EF90DF90CF900F900FBE0F9015
:101450001F9018959EEF9093E800C7CF1092F1006F
:10146000D5CF913059F48111D3CF4130510581F658
:101470008091B4018D7F8093B401CACF933049F439
:101480008111C6CF4130510519F68091B4018260B7
:10149000F2CF953041F48091E80080FFFCCF2068C6
:1014A0002093E300B5CF963009F0A9C00B8D1C8DB9
:1014B00022E01092E9001092B0011092AF01F212F6
:1014C0002EC01092AE011092AD010E94E9031F825E
:1014D00099E09983FA8291E09E8390EA98879AEF47
:1014E00099872091AF013091B001275F3F4F3C8336
:1014F0002B838D831092E9001092B0011092AF01FE
:101500001093AE010093AD0149E050E0BE016F5F62
:101510007F4F80E00E94F7020E94E90379CF109389
:10152000AE010093AD010E94D503DC0112960D912E
:101530001C910115110509F451C1D801ED91FC91DF
:101540000480F581E02DBE016B5E7F4FC8010995D7
:10155000009709F03EC1F80100851185EACFF3E05C
:10156000FF120EC08F89882309F440C0823061F4D5
:1015700040E86CE183E092E00E94F40B811148CFD7
:1015800081E28093EB0047CF813029F440E864E0AA
:101590008EEF91E0F1CF833099F70E94D503DC0103
:1015A0001296ED90FC908E010F5F1F4F6801E114C1
:1015B000F10479F0D701ED91FC910680F781E02DDF
:1015C000B801C7010995080F111DF701E084F184E6
:1015D000EECFD8011C92F60101900020E9F7319777
:1015E000BF016C197D0940E0C601C6CF68EE71E00D
:1015F000FB01449150E080E80E94F70209CF973048
:1016000009F4BECF983021F481E08093F10000CF3F
:10161000993009F0FDCE837009F0B2CFEDE0F1E032
:1016200081E031E096E32191222371F08093E9007B
:101630003093EB00DF0111972C912093EC009093F5
:10164000ED008F5F873079F78EE78093EA00109284
:10165000EA008F898093CC01DBCE8B8D9C8D10921C
:10166000E9001092B0011092AF019093AE01809307
:10167000AD01898D811192C08E899D89913A49F47D
:10168000813209F07DCF47E050E064E071E080E016
:10169000B3CF913209F074CF833269F48F89988D7A
:1016A000B0E0A0E08093000190930101A0930201BB
:1016B000B0930301ADCE803269F48091E80082FFDF
:1016C000FCCF67E084E091E00E94C8038BEF809339
:1016D000E8009ECE823209F09BCE8F8980930B0169
:1016E000EEEFFFE7859194918B3F9C4D51F1E0E047
:1016F000F8E08091040190910501A0910601B0915C
:101700000701803B9440A105B105F1F480910B01E4
:1017100080FD1AC0EE3F8AE0F80789F587E797E772
:1017200091838083809160008093B10188E19BE088
:101730000FB6F894A895809360000FBE9093600058
:1017400067CEEEEFFAE0D5CF80819181873797475A
:1017500009F05ECEA895809160008861809360005A
:101760008091B10180936000EE3F2AE0F20789F09A
:101770008091FE0A9091FF0A9183808349CE8081F7
:1017800091818737980751F29093FF0A8093FE0A60
:10179000C5CF1092FF0A1092FE0A3ACE0E94D503DE
:1017A000DC0112960D911C910115110509F4E8CE8A
:1017B000D801ED91FC910190F081E02DBE016B5EAE
:1017C0007F4FC8010995811123CEF801008511854D
:1017D000EBCF181619060CF41BCED2CEF1E0FF1297
:1017E000BECE6CEE71E004CFEF92FF920F931F9389
:1017F000CF93DF93F82E192FE62E042F81E0860F6A
:10180000880F0E94C90283E00E94C902CF2DD12F08
:10181000EC0EFD2EF11CCE15DF05B9F007FF13C04D
:10182000FE0184910E94C902182F80E00E94C90223
:10183000812321968111EFCFDF91CF911F910F91DD
:10184000FF90EF9008958881EDCF81E0F5CFEEED28
:10185000F1E01382128288EE93E0A0E0B0E084838E
:101860009583A683B78385E691E0918380838FEF8C
:101870009FEF95878487EFE6F2E08EE7808381E033
:10188000818387E791E090932F0280932E02089541
:10189000CF93DF93CDB7DEB729970FB6F894DEBFAD
:1018A0000FBECDBF789484B5826084BD84B581605D
:1018B00084BD85B5826085BD85B5816085BD80911B
:1018C0006E00816080936E00109281008091810093
:1018D000826080938100809181008160809381008B
:1018E000809180008160809380008091910082606F
:1018F000809391008091910081608093910080910C
:1019000090008160809390008091C10084608093FA
:10191000C1008091C10082608093C1008091C100AC
:1019200081608093C1008091C30081608093C30077
:101930008091C00082608093C0008091C20081606D
:101940008093C20080917A00846080937A008091B5
:101950007A00826080937A0080917A008E7F8093F3
:101960007A0080917A00806880937A001092CC018E
:101970001092B4011092B3018091D70081608093DE
:10198000D70080EA8093D80089B58F7E89BD89B55C
:10199000826089BD09B400FEFDCF61E070E080E0A7
:1019A00090E00E948B028091D8008F7C80618093B0
:1019B000D8008091E000807F8093E0008091E1007A
:1019C0008E7E8093E1008DE08093E200559A209A0C
:1019D0000E94B7076E9A6CE271E080E090E00E948E
:1019E0008B0280E292E00E946104F9E46F2EF1E044
:1019F0007F2EA9E4AA2EA1E0BA2E5524539461ECBF
:101A0000262E70E8472EE0E08E2EE0E09E2E80919C
:101A1000C101811137C18EE292E00E944508382E43
:101A2000882309F422C18CEE92E00E9461046CE2EA
:101A300071E080E090E00E948B020E94BD026B0189
:101A40007C018EE292E00E94B20544E061E271E026
:101A50008EE292E00E9400068C018EE292E00E94EB
:101A6000AA050115110529F0F8018181807F803FC9
:101A700091F06AE070E080E090E00E948B020E94AA
:101A8000BD026C197D098E099F096B3F71058105A7
:101A90009105B8F2312C64EF71E080E090E00E9493
:101AA0008B0283ED92E0332009F4C2C08EE292E013
:101AB0000E94B20543E06AE271E08EE292E00E9489
:101AC00000068C018EE292E00E94AA050115110524
:101AD00061F0F8018381833009F4CEC0813041F494
:101AE0008181E3E0F0E0823439F4F0E0E0E004C02A
:101AF000E2E0F0E08C30C9F7EE0FFF1FE753FD4F37
:101B00000591149184EB92E00E944604C8010E9462
:101B1000610489E0E3E3F1E0DE01119601900D92AA
:101B20008A95E1F71D820E94BD026B017C01312C78
:101B30008EE292E00E94B20545E0BE016F5F7F4FEA
:101B40008EE292E00E9400068C018EE292E00E94FA
:101B5000AA05012B09F03394F2E0F31588F06AE04E
:101B600070E080E090E00E948B020E94BD026C1940
:101B70007D098E099F096B3F710581059105C0F2B2
:101B800064EF71E080E090E00E948B0282E08315B8
:101B900020F088E992E00E94610489E0ECE3F1E042
:101BA000DE01119601900D928A95E1F70E94BD0227
:101BB0006B017C01312C8EE292E00E94B20549E07B
:101BC000BE016F5F7F4F8EE292E00E9400068C01A3
:101BD0008EE292E00E94AA05012B09F0339492E074
:101BE000931588F06AE070E080E090E00E948B023C
:101BF0000E94BD026C197D098E099F096B3F71051A
:101C000081059105C0F264EF71E080E090E00E94F0
:101C10008B02E2E0E31520F08BE792E00E94610482
:101C20008EE292E00E944A06811104C083E692E0AF
:101C30000E9461048EE292E00E949806E0915402B4
:101C4000F0915502E730F105D4F4FF27EE0FFF1FA6
:101C5000ED5AFD4F059114918AE392E00E944604EB
:101C6000C8010E9461045092C1018114910409F4D9
:101C7000CECE0E940000C1CEE1E0F0E03DCFE7E033
:101C8000F0E0E4CF8EE292E00E949806811107C056
:101C900087E292E00E9461041092C101E6CF809138
:101CA0005202909153028095909580FFCDC10E9481
:101CB000B707FC012081318131603183208380911D
:101CC0005202909153028095909581FFC4C10E9469
:101CD000B707FC01208131813460318320838091FA
:101CE0005202909153028095909582FFBBC10E9451
:101CF000B707FC01208131813860318320838091D6
:101D00005202909153028095909583FFB2C10E9438
:101D1000B707FC01208131813260318320830E942A
:101D2000B707E0915202F0915302E095F09534E04C
:101D3000F695E7953A95E1F7EF70FF27EF5AFE4FDA
:101D40002081FC0122838091520290915302809560
:101D5000909590FF95C10E94B707FC0120813181C9
:101D600020643183208380915202909153028095A8
:101D7000909591FF8CC10E94B707FC0120813181B1
:101D80002068318320838091520290915302809584
:101D9000909592FF83C10E94B707FC012081318199
:101DA000206131832083809152029091530280956B
:101DB000909593FF7AC10E94B707FC012081318181
:101DC000206231832083809152029091530280954A
:101DD000909594FF71C10E94B707FC012081318169
:101DE0002860318320838091520290915302809524
:101DF000909595FF68C10E94B707FC012081318151
:101E00002460318320838091520290915302809507
:101E1000909596FF5FC10E94B707FC012081318138
:101E2000226031832083809152029091530297FD6A
:101E300058C10E94B707FC012081318121603183A4
:101E400020838091540290915502069709F4C2C0F4
:101E500080915A02882309F4BDC0209167029091B5
:101E60006102211101C090E09695809162022111DA
:101E700001C080E0869530916302211101C030E0FD
:101E8000209156023695622F70E0C92ED12CE82E93
:101E9000F12C032F10E04091C001042E000C550BD3
:101EA00064177507C9F44091BF01042E000C550B4F
:101EB0004C155D0589F44091BE01042E000C550BB4
:101EC0004E155F0549F44091BD01042E000C550BE1
:101ED0004017510709F466C02093C0019093BF01D9
:101EE0008093BE013093BD01213808F401C16F57C2
:101EF0007109072E000C880B990B0E94C2102AE969
:101F000039E949E95FE30E9426110E94911067FDBB
:101F10006FE720E8322E360EB601DD0C880B990BE8
:101F20000E94C2102AE939E949E95FE30E942611BB
:101F30000E949110D62E90E89D1510F490E8D92EAD
:101F4000B701FF0C880B990B0E94C2102AE939E9EE
:101F500049E95FE30E9426110E949110F62E67FF67
:101F600002C08FE7F82EB801110F880B990B0E9461
:101F7000C2102AE939E949E95FE30E9426110E946B
:101F80009110162F67FD1FE70E94B707FC013382EF
:101F900044820E94B707FC0110581583942D9D19A7
:101FA000F90EF6820E94B707FC01208131812E7F55
:101FB000318320830E94B707FC01208131812D7F6E
:101FC000318320830E94B707FC01208131812F7E5D
:101FD000318320830E94B7078C018091B501811164
:101FE0002AC05092D1015092D20187ED91E0909396
:101FF000D4018093D3011092D6011092D501709232
:10200000CE016092CD011092D9011092D8011092A8
:10201000DB011092DA015092DC015092DD01209236
:10202000D7010E94D5030E94F601B092CE01A09282
:10203000CD015092B5018091D00148E050E0B80147
:1020400080640E942E0311CE0E94B707FC012081FC
:1020500031813E7F32CE0E94B707FC012081318161
:102060003B7F3BCE0E94B707FC0120813181377F47
:1020700044CE0E94B707FC01208131813D7F4DCEC7
:102080000E94B707FC01208131812F7B6ACE0E941C
:10209000B707FC01208131812F7773CE0E94B707EB
:1020A000FC01208131812F7E7CCE0E94B707FC018C
:1020B000208131812F7D85CE0E94B707FC012081D0
:1020C0003181277F8ECE0E94B707FC0120813181AC
:1020D0002B7F97CE0E94B707FC01208131812D7F95
:1020E000A0CE0E94B707FC01208131812E7FA7CEB0
:1020F00080E890E0861B970BBC01072E000C880B34
:10210000990B0E94C2102AE939E949E95FE30E946C
:1021100026110E949110613808F060E8342C361ABC
:10212000FBCE0E94051188F09F5798F0B92F992790
:10213000B751B0F0E1F0660F771F881F991F1AF0B2
:10214000BA95C9F714C0B13091F00E941F11B1E0E7
:1021500008950C941F11672F782F8827B85F39F0E6
:10216000B93FCCF3869577956795B395D9F73EF44B
:1021700090958095709561957F4F8F4F9F4F0895F3
:10218000E89409C097FB3EF4909580957095619511
:102190007F4F8F4F9F4F9923A9F0F92F96E9BB27C7
:1021A0009395F695879577956795B795F111F8CF43
:1021B000FAF4BB0F11F460FF1BC06F5F7F4F8F4FAE
:1021C0009F4F16C0882311F096E911C0772321F0A4
:1021D0009EE8872F762F05C0662371F096E8862F3C
:1021E00070E060E02AF09A95660F771F881FDAF793
:1021F000880F9695879597F9089557FD9058440F45
:10220000551F59F05F3F71F04795880F97FB991F55
:1022100061F09F3F79F08795089512161306140612
:10222000551FF2CF4695F1DF08C01616170618069F
:10223000991FF1CF86957105610508940895E8947A
:10224000BB2766277727CB0197F908950E9439119C
:102250000C94AA110E949C1138F00E94A31120F046
:10226000952311F00C9493110C94991111240C9452
:1022700020110E94FD1070F3959FC1F3950F50E05F
:10228000551F629FF001729FBB27F00DB11D639F28
:10229000AA27F00DB11DAA1F649F6627B00DA11DCE
:1022A000661F829F2227B00DA11D621F739FB00D74
:1022B000A11D621F839FA00D611D221F749F3327E4
:1022C000A00D611D231F849F600D211D822F762F7D
:1022D0006A2F11249F5750409AF0F1F088234AF05A
:1022E000EE0FFF1FBB1F661F771F881F91505040C6
:1022F000A9F79E3F510580F00C9493110C94201186
:102300005F3FE4F3983ED4F3869577956795B7954C
:10231000F795E7959F5FC1F7FE2B880F911D969566
:10232000879597F9089597F99F6780E870E060E0D6
:1023300008959FEF80EC089500240A94161617065E
:1023400018060906089500240A94121613061406A6
:1023500005060895092E0394000C11F4882352F009
:10236000BB0F40F4BF2B11F460FF04C06F5F7F4FC1
:102370008F4F9F4F0895EE0FFF1F0590F491E02DB2
:062380000994F894FFCF60
:10238600FFFFFFFF00E100000000000000C18081A8
:10239600000000014300005A5A5A5A5A014200FFEF
:1023A600FF014300015A5A5A5A5A0145005A5A5ACD
:1023B6005A5A5A014400010300000000014F00FF71
:1023C600FF0300000000000000DF0458051D0502A1
:1023D600050800020104080308060708080508089E
:1023E600080000000030041A047E047304C5048348
:1023F60004A10400000000B205AA05A30545080DC6
:022406000A00CA
:00000001FF
