:020000040000FA
:100000000C94AE010C94D6010C94D6010C94D6013C
:100010000C94D6010C94D6010C94D6010C94D60104
:100020000C94D6010C94D6010C94AE0C0C941D0DBE
:100030000C94D6010C94D6010C94D6010C94D601E4
:100040000C94D6010C94D6010C94D6010C94D601D4
:100050000C94D6010C94D6010C94D6010C94640C2B
:100060000C94D6010C94D6010C94D6010C94D601B4
:100070000C94D6010C94D6010C94D6010C94D601A4
:100080000C94D6010C94D6010C94D6010C94D60194
:100090000C94D6010C94D6010C94D6010C94D60184
:1000A0000C94D6010C94D6010C94D6014A6F676368
:1000B0006F6E006E6547636F6E00466C69676874AB
:1000C000737469636B004475616C2053686F636B74
:1000D0002032004475616C2053686F636B00446983
:1000E000676974616C00556E6B6E6F776E00284F98
:1000F0007574206F6620626F756E64732900477592
:1001000069746172204865726F004475616C205398
:10011000686F636B20576972656C65737300447513
:10012000616C2053686F636B00556E6B6E6F776EFA
:10013000000000000200090F0000030401000C0091
:1001400000000000000000000000000000000000AF
:1001500005010905A10115002501350045017501BD
:100160009510050919012910810205012507463B53
:100170000175049501651409398142650095018175
:100180000126FF0046FF00093009310932093575A3
:1001900008950481020600FF0920950181020A21C9
:1001A0002695089102C0080B000202020000090413
:1001B00000000102020000052400100105240101D5
:1001C000010424020605240600010705810310002E
:1001D0004009040100020A00000007050202400075
:1001E0000007058302400000040309041201000215
:1001F000EF0201400D0F9200000101020301484F80
:10020000524900506F6B6B656E20546F75726E6152
:100210006D656E742044582050726F2050616400E8
:1002200052656164792100436F6E74726F6C6C6506
:1002300072206C6F7374203A2800436F6E74726F73
:100240006C6C65722050726F746F636F6C20697391
:100250003A2000E600DE00D300C600BA00B300ACCE
:1002600000EE0043616E6E6F7420657869742063E0
:100270006F6E666967206D6F64650043616E6E6FB7
:100280007420656E61626C6520616E616C6F6720C1
:10029000627574746F6E730043616E6E6F74206567
:1002A0006E61626C6520616E616C6F67207374694A
:1002B000636B7300436F6E74726F6C6C6572205465
:1002C0007970652069733A200029011E010A01FE38
:1002D00000EE0043616E6E6F7420656E746572206F
:1002E000636F6E666967206D6F646500436F6E743F
:1002F000726F6C6C657220666F756E642100000011
:100300000000250028002B002E0031000000000016
:10031000240027002A002D003000040404040403F4
:100320000405020202020403020202020606060695
:1003300006060404020202040404080201104080BC
:1003400040102040804080080204018040201002BC
:1003500001108010204040205D10C01411241FBEE9
:10036000CFEFDAE0DEBFCDBF12E0A0E0B1E0ECED10
:10037000FCE202C005900D92A433B107D9F723E047
:10038000A4E3B2E001C01D92A039B207E1F711E089
:10039000CDEAD1E004C02197FE010E945B16CC3A61
:1003A000D107C9F70E94A0100C9461160C940000AC
:1003B0001F93CF93DF93182FC0919702D09198028B
:1003C0008A3041F4E881F9810190F081E02D6DE0FF
:1003D000CE010995E881F9810190F081E02D612F2E
:1003E000CE01099521E030E0019711F430E020E0E2
:1003F000C901DF91CF911F910895CF93DF93C091F1
:100400009702D0919802E881F9810084F185E02D6E
:10041000CE010995892BB9F3E881F9810284F3852E
:10042000E02DCE01DF91CF91099490E0FC01E75CD3
:10043000FC4F2491865E9C4FFC018491882399F0A7
:1004400090E0880F991FFC01E45FFC4FA591B491E7
:10045000FC01E250FD4F859194918FB7F894EC9197
:10046000E22BEC938FBF0895CF93DF93FC01818142
:1004700090918A02482F490F5527551F4830510542
:100480009CF5A281B381109709F526E832E0338309
:1004900022832081209388028093890280918B029D
:1004A000820F808320918C02A22FB0918D028A2F1F
:1004B000821B8917E8F481813D91C82FD0E0C45F89
:1004C000DE4F38838F5F8183F2CFD90118962D914B
:1004D0003C91199721153105C1F726E832E01996AC
:1004E0003C932E931897D5CF80E0DF91CF9108955C
:1004F00081E0FBCFFC0180918502882311F13FB799
:10050000F89482E08093E9002091F200822F90E03D
:100510001816190614F481E090E0882339F0289821
:1005200044E6409384024091F1004083222339F055
:100530002091F200211103C02BE62093E8003FBF79
:1005400008958FEF9FEF08953FB7F8948091800250
:1005500090918102A0918202B091830226B5A89B5E
:1005600005C02F3F19F00196A11DB11D3FBFBA2F45
:10057000A92F982F8827BC01CD01620F711D811D05
:10058000911D43E0660F771F881F991F4A95D1F789
:1005900008958F929F92AF92BF92CF92DF92EF9287
:1005A000FF924B015C010E94A4026B017C010E943E
:1005B000A4026C197D098E099F09683E734081056C
:1005C0009105A8F321E0821A9108A108B10888EEEC
:1005D000C80E83E0D81EE11CF11C81149104A10413
:1005E000B10429F7FF90EF90DF90CF90BF90AF90CC
:1005F0009F908F9008952FB7F89460917C0270912E
:100600007D0280917E0290917F022FBF08954091DC
:100610006802509169022091660230916702421788
:100620005307B4F49091E8009570E1F39091E800DD
:1006300092FD19C08093F100809168029091690247
:1006400001968F739927892B19F48EEF8093E80018
:10065000809168029091690201969093690280935B
:10066000680281E0089580E00895DF92EF92FF92A2
:100670000F931F93CF93DF93D82E8A01EB017B0159
:10068000E40EF51ECE15DF0559F0D7FE12C0FE01AF
:1006900084910E94070321968111F4CF0FEF1FEF81
:1006A000C801DF91CF911F910F91FF90EF90DF90E4
:1006B00008958881EECF2FB7F89487708093E90072
:1006C0009091E800892F807295FF04C09091F2000C
:1006D00080E4891B2FBF08957F928F929F92AF92E3
:1006E000BF92CF92DF92EF92FF920F931F93CF931F
:1006F000DF93C82E8B017A0180918502811110C091
:100700008FEF9FEFDF91CF911F910F91FF90EF90AF
:10071000DF90CF90BF90AF909F908F907F90089583
:1007200080916C0280FF05C08091E0008260809320
:10073000E000CE2DDF2DD12C8AEFB82E8C2D8770C6
:10074000982E8C2D8072882E8C2D8074782E9AE3B2
:10075000A92E209719F4DD2009F452C08C2D0E9497
:100760005B0381110AC0BA94BB2051F261E070E0D2
:1007700080E090E00E94C902ECCF8C171D0611F0BA
:100780000CF08C2F9FB7F8949092E9002091E8002C
:1007900025FD02C09FBFDDCF282F30E0C21BD30B49
:1007A000882029F08150A0F01092F100FBCFF801D1
:1007B000C7FC0AC0815050F041914093F100FACF3C
:1007C00044914093F10031968150D0F7020F131FEE
:1007D000DD2021F0A092E800D12CDCCF8091E80050
:1007E00085FD07C0A092E800DD24D394209791F204
:1007F000F3CF209779F6772069F2A092E800CACF6C
:100800005D9884E680936B02C7017CCF615030F025
:100810002091F100FC0120830196F8CF289884E60E
:10082000809384020895DC01ED91FC910190F081A8
:10083000E02D099480915E0281110DC082E08093C9
:100840005A0284E080935B0210925D0210925C0277
:1008500081E080935E028AE592E008950F931F93F2
:10086000CF93DF931F92CDB7DEB782E0898342E456
:1008700050E066EA71E080E80E9435030E941A04A5
:10088000DC0112960D911C910115110589F0D8011A
:10089000ED91FC910280F381E02DBE016F5F7F4FEF
:1008A000C801099597FD04C0F80100851185ECCFBA
:1008B00089810F90DF91CF911F910F910895CF9370
:1008C000DF93EC0180910B01882331F083E00E94DB
:1008D0006C031816190634F081E090E09B838A833C
:1008E00080E090E0DF91CF910895CF93DF931F9246
:1008F000CDB7DEB76983DC01ED91FC910280F38115
:10090000E02D41E050E0BE016F5F7F4F09950F90F1
:10091000DF91CF9108950F931F93CF93DF938C01B5
:10092000D0E0C0E0F801EC0FFD1F6491662341F0B8
:1009300089EC92E00E947504892B11F02196F2CF88
:10094000CE01DF91CF911F910F910895CF93DF9347
:100950000E948B04EC0142E050E061E372E089EC1C
:1009600092E00E945F048C0F9D1FDF91CF9108954C
:1009700083E08093E9008091F200882319F08AE3F4
:100980008093E800089583E00E945B0390E008955F
:10099000CF93DF931F92CDB7DEB7FC018485958599
:1009A00097FD08C02FEF3FEF358724870F90DF9129
:1009B000CF910895CE0101960E947A02019719F411
:1009C000898190E0F3CF8FEF9FEFF0CF0F931F93CC
:1009D000CF93DF931F92CDB7DEB78C01FC018485E6
:1009E000958597FF0BC0CE0101960E947A02019770
:1009F00071F4898190E0F80195878487F8018485F6
:100A000095850F90DF91CF911F910F9108958FEFF2
:100A10009FEFF1CFFC018485958597FD0BC09FB7B3
:100A2000F89482E08093E9008091F2009FBF90E00B
:100A3000019608959FB7F89482E08093E900809131
:100A4000F2009FBF90E00895CB0108954F925F920E
:100A50006F927F92BF92CF92DF92EF92FF920F93AD
:100A60001F93CF93DF93EC0129013A018B01C12C35
:100A7000D12C7601C414D504E604F7040CF03FC071
:100A8000F801B1908F018F8580FF0BC0E881F9815B
:100A90000084F185E02D20E144E070E060E0CE01CB
:100AA0000995EB85FC858D859E85E817F90760F42F
:100AB000B0828B859C8501969C878B872FEFC21A0D
:100AC000D20AE20AF20AD6CF6B2D70E0E881F981F2
:100AD000028CF38DE02DCE010995019679F7C701BF
:100AE000B601DF91CF911F910F91FF90EF90DF90B2
:100AF000CF90BF907F906F905F904F90089573015B
:100B00006201EDCFCF93DF93EC01E881F981028898
:100B1000F389E02D09958F3F980731F02D813E81B3
:100B20002F5F3F4F3E832D83DF91CF9108958FEF4D
:100B30009FEF089560E070E0CB01089590E080E0C1
:100B40000895FF920F931F93CF93DF938C01EB01D6
:100B50006F3F7607B9F0F62EEAE06E1306C06DE03F
:100B6000F801808991890E9413046F2DF801808912
:100B700091890E941304CE01DF91CF911F910F91B3
:100B8000FF900895D0E0C0E0F6CF7F928F929F92C1
:100B9000AF92BF92CF92DF92EF92FF920F931F938B
:100BA000CF93DF938C0149015A01EB01C12CD12C69
:100BB0007601C814D904EA04FB04B4F479908AE0FD
:100BC000781206C06DE0F801808991890E941304B3
:100BD000672DF801808991890E941304FFEFCF1AD5
:100BE000DF0AEF0AFF0AE5CFC501B401DF91CF911B
:100BF0001F910F91FF90EF90DF90CF90BF90AF903B
:100C00009F908F907F900895CF93DF93EC01888918
:100C10009989DC01ED91FC910084F185E02D099525
:100C2000892BA9F388899989DC01ED91FC910284D3
:100C3000F385E02DDF91CF910994CF93DF93EC0101
:100C400088899989DC01ED91FC910084F185E02D82
:100C50000995892BA9F388899989DC01ED91FC918B
:100C60000484F585E02DDF91CF9109948F929F92B6
:100C7000AF92BF92CF92DF92EF92FF920F931F93AA
:100C8000CF93DF938C0149015A01EB01C12CD12C88
:100C90007601D80150968D919C91DC01ED91FC91EB
:100CA0000284F385E02D09958F3F61F0C814D904C3
:100CB000EA04FB043CF48993BFEFCB1ADB0AEB0A8E
:100CC000FB0AE7CFC701B601DF91CF911F910F91CA
:100CD000FF90EF90DF90CF90BF90AF909F908F905C
:100CE0000895DC0150968D919C91DC01ED91FC9171
:100CF0000084F185E02D099490E080E0089590E073
:100D000080E0089590E080E0089508950895DC0162
:100D1000ED91FC9136970190F081E02DE80FF91FDD
:100D20008DE991E09183808387EA91E097838683C0
:100D300008952DE931E0FC013183208327EA31E079
:100D4000378326830895FB0120813181FC013183A3
:100D50002083FB014281538126503109F901208112
:100D60003181820F931FFC0151834083089529EB49
:100D700031E0FC013183208323EC31E0318F208F7F
:100D80006DEA71E00C94A306DC01ED91FC913697BD
:100D900020813181820F931F0C94B7060895DC01E6
:100DA000ED91FC9136970190F081E02DE80FF91F4D
:100DB00089E891E09183808383E991E09383828342
:100DC000089529E831E0FC013183208323E931E0F3
:100DD000338322830895FB0120813181FC0131831B
:100DE0002083FB014281538126503109F901208182
:100DF0003181820F931FFC0151834083089525EDBB
:100E000031E0FC01318320832FED31E0358B248BE1
:100E100069EC71E00C94EB06DC01ED91FC913697E6
:100E200020813181820F931F0C94FF06089508954D
:100E3000DC01FB0112962C91129784819581281771
:100E4000190641F491818081813A31F49D7F81E0DE
:100E5000913009F080E008958132E1F79B3029F468
:100E600082811F968C9381E008959A3099F7828150
:100E700050968C93F8CFDC01FB0188E4808389E4F1
:100E8000818384E482831D969C911D979F709F5B54
:100E900093831D968D919C9124E0969587952A9534
:100EA000E1F78F708F5B848385E00895EF92FF9266
:100EB0000F931F93CF93DF93FB012081213871F5AE
:100EC0002381223259F5DC0112964C91248135811F
:100ED0004217130619F5EC010B851C85F12CE12C4A
:100EE0000115110589F0F8014481558162817381F2
:100EF00080E80E9435038F3F980749F0E80EF91EFD
:100F0000D8010D911C91ECCF81E08F87C701DF9153
:100F1000CF911F910F91FF90EF90089590E080E0A6
:100F2000F6CFCF93DF93CDB7DEB769970FB6F894BE
:100F3000DEBF0FBECDBFFC01DB018C918F5F8C93B8
:100F40009E012D5F3F4F8DE0D9011D928A95E9F7F3
:100F500029E0298384E08A8391E09D8383E08E8366
:100F60002A8721E22B879C879D879F8722E2288BF7
:100F700027E02B8B25E02C8B8E8B20E430E0388F04
:100F80002F8B998F82818B8395858685998B8A8B10
:100F9000838180688D8B49E150E0BE016F5F7F4F98
:100FA00080E00E94350369960FB6F894DEBF0FBE4D
:100FB000CDBFDF91CF910895FC01A081B1818281E5
:100FC0009381A817B907D1F01496ED91FC9115976C
:100FD000E08112960D90BC91A02D8A179B0731F0ED
:100FE00014960D90BC91A02D8C91E82BE150EC3023
:100FF00028F4F0E0E15BFE4F8081089588E00895D9
:101000006EBD00000DB407FEFDCF8EB508952A9A7F
:10101000299A599A80E690E00197F1F70895599836
:10102000E4E8F3E0908181819CBD8DBD80E690E095
:101030000197F1F708958F929F92AF92BF92CF924E
:10104000DF92EF92FF920F931F93CF93DF937C0178
:101050006B015A01022F10E0D0E0C0E080E6882E3C
:10106000912CC017D107E1F0D701ED91FC910480DC
:10107000F581E02D6AE5C114D10421F0D601AC0F51
:10108000BD1F6C91C7010995A114B10421F0F501B0
:10109000EC0FFD1F8083C4010197F1F72196E1CF8A
:1010A000DF91CF911F910F91FF90EF90DF90CF9044
:1010B000BF90AF909F908F900895CF92DF92EF9264
:1010C000FF920F931F93CF93DF937C016B01D42F7B
:1010D0008C010E5F1F4F23E0A8010E941B08F7013F
:1010E00023812F3F61F410E000E0C801DF91CF9130
:1010F0001F910F91FF90EF90DF90CF900895848122
:101100008A3511F08111EFCF2F70C22FCC0FD33061
:1011100059F0B6016D5F7F4F2DEF2D0FA7014B5F8B
:101120005F4FC7010E941B082C2F2D1B2D5FE9F27A
:101130004D2F50E0CA01820F911D8197A4F6400FF8
:10114000511F70E060E0C7010E941B08CECFCF9214
:10115000DF92EF92FF920F931F93CF93DF93EC01F7
:101160000E94FB026B017C01E881F9810190F08112
:10117000E02DCE01099544E061E471E0CE010E94CA
:101180005D088C01E881F9810280F381E02DCE01B8
:1011900009950115110529F0F8018181807F803FB3
:1011A00011F56AE070E080E090E00E94C9020E94C0
:1011B000FB026C197D098E099F096B3F7105810542
:1011C000910590F2C0E064EF71E080E090E00E9451
:1011D000C9028C2FDF91CF911F910F91FF90EF905B
:1011E000DF90CF900895C1E0EECFEF92FF920F9382
:1011F0001F93CF93DF9300D000D01F92CDB7DEB7FF
:101200008C01DC019C961C929C97D9961C92D997D4
:10121000ED91FC910190F081E02D0995F80182ADEE
:1012200043E06AE471E08823A9F085E0EAE4F1E0B4
:10123000DE01119601900D928A95E1F7D801DB96B7
:101240008C91DB978C83DC968C918D8345E0BE017D
:101250006F5F7F4FC8010E945D087C01D801ED914E
:10126000FC910280F381E02DC8010995E114F1049D
:1012700041F0F7018181807F803F81F4C8010E94A5
:10128000A70880E00F900F900F900F900F90DF91C4
:10129000CF911F910F91FF90EF900895D8019496F0
:1012A0008D919C91959793969C938E939297238181
:1012B000348195963C932E93949781818937B9F424
:1012C00083E090E097969C938E939697D80196969C
:1012D0008D919C9197978430910591F150F58230D2
:1012E000910571F1039709F441C081E0CBCF982FAC
:1012F000907F903721F482E090E0D801E3CF9035E1
:1013000031F484E090E0F80197A386A3DFCF833225
:1013100019F485E090E0F1CF903E19F486E090E07A
:10132000F2CF833619F487E090E0E7CF81E090E0D8
:10133000EACF8630910509F45CC030F10797A9F631
:1013400081E0D8019C968C939C97F70185819A96B1
:101350008C939A9786819B968C939B97878198967E
:101360008C939897808599968C93BFCF81E0F801F4
:1013700081AFF70139969D96C701459621912D932E
:10138000E817F907D9F7DCCF81E09C968C939C97FE
:10139000F701958198969C939897D9968C93D997B5
:1013A0008681D3968C93D3979781D4969C93D49728
:1013B0004085D5964C93D59797FF05C03F77959676
:1013C0003C932E93949787FF0AC0D80194968D91F1
:1013D0009C9195979F7B95969C938E939497403F75
:1013E00008F483CFF80184A195A19B7F95A384A3E2
:1013F0007CCF81E09C968C93F7019681858197FD47
:101400000DC087FD8FE7D80198968C93D8019896E8
:101410008C919897805898968C9367CF813808F470
:1014200081E8F80180A7F2CFCF93DF93EC010E940F
:10143000FF06CE01DF91CF910C94CB15DC01ED912D
:10144000FC91369720813181820F931F0C94140AEE
:10145000CF93DF93EC010E94B706CE01DF91CF91CD
:101460000C94CB15DC01ED91FC91369720813181F4
:10147000820F931F0C94280A0C94CB150C94CB1557
:10148000DC01ED91FC91369720813181820F931F11
:101490000C943E0A0C94CB150C94CB15DC01ED9109
:1014A000FC91369720813181820F931F0C944C0A56
:1014B0000C94CB150C94CB15CF92DF92EF92FF9248
:1014C0000F931F93CF93DF938C017C0188E0E80E8C
:1014D000F11CD8011A96CD90DC901B9718962D918F
:1014E0003C91E901CC16DD06F9F08C819D81EA8101
:1014F000FB81DC014C91641326C02C173D0729F5B4
:1015000011821082D8011996FC93EE9318970E94CD
:10151000CB15209719F0CE010E94CB15F8018485D8
:101520009585019795878487C7010E94DC07D801BC
:1015300012968C93DF91CF911F910F91FF90EF90B6
:10154000DF90CF900895EF01CDCF2881398131838D
:101550002083A881B9811396FC93EE931297D7CF7D
:101560001F93CF93DF93EC01519A599A229A2A9AAA
:10157000219A299A23982B982B9A1FB7F894809137
:10158000340281115AC08BE293E0FC0124914AE4B9
:1015900053E0FA013491E22FF0E0EE0FFF1FE45F19
:1015A000FC4FA591B4912C91322309F037C0E2E4AD
:1015B000F1E02491FA014491FC018491882309F41B
:1015C0002DC02223E9F021502F30D0F4E22FF0E09B
:1015D000E451F54F0C945B164F0B530BFB0A470B72
:1015E0004B0B000B000B000B560B5C0B600B640BE2
:1015F0006A0B000B6E0B909180009F779093800098
:10160000E82FF0E0EE0FFF1FE250FD4FA591B491DF
:101610008FB7F8949C91492B4C938FBF81E10E9426
:1016200015028CB580618CBD8CB580648CBD8FE05B
:101630000E94150280E10E941502809134028F5FA2
:10164000809334021FBF80E888A789A78AA78BA749
:101650001CA68CE0FE01BD96DF011D928A95E9F77C
:101660001FA21EA21AAE1BAE1CAE15E0CE010E9438
:10167000F50861E070E080E090E00E94C90211503E
:10168000A9F7CE01DF91CF911F910C94F5089091AD
:1016900080009F7DB3CF90918000977FAFCF94B5AE
:1016A0009F7794BDADCF94B59F7DFBCF9091900077
:1016B0009F7790939000A4CF909190009F7DF9CF59
:1016C00090919000977FF5CF9091C0009F77909375
:1016D000C00096CF9091C0009F7DF9CF9091C2003D
:1016E000977F9093C2008CCFCF938091520281114B
:1016F00092C01092500210924F0286E090E00E9439
:101700002F15FC011182108213821282158214821D
:1017100090934C0280934B0290934E0280934D0223
:1017200080913B02811113C0109236021092350253
:1017300080E591E0909338028093370286E590E04F
:1017400090933A028093390281E080933B0280912A
:101750006E02811130C0C1E0C0938A02C0938B0237
:1017600080E992E090938D0280938C0210928F0218
:1017700010928E028BE092E0909387028093860213
:10178000109292021092910210929402109293027F
:10179000C0939502C093960281EC809390020E94C0
:1017A0001A040E9434028BE092E0909387028093A7
:1017B0008602C0936E02E0919102F09192023097FE
:1017C00079F585E392E09093920280939102809163
:1017D0009302909194022091390230913A02820F43
:1017E000931F909394028093930298E0E3E4F2E0D5
:1017F000DF01892F1D928A95E9F780E880934602E0
:101800008093470280934802809349029093450257
:1018100081E08093520283E492E0CF910895FC012D
:10182000808191810097D9F785E392E0918380834D
:10183000CECFBF92CF92DF92EF92FF920F931F9382
:10184000CF93DF93EC01B62E7C0188E0E80EF11C0B
:101850008A859B85C884D984F6018E179F0749F035
:10186000A481B5812C91B21609F10280F381E02D9B
:10187000F4CF86E090E00E942F158C0181E090E08B
:101880000E942F15FC01B082F80195838483F60134
:1018900011830083F80111821082D382C2821987DA
:1018A00008878C859D8501969D878C87C7010E943E
:1018B000DC078A83DF91CF911F910F91FF90EF900A
:1018C000DF90CF90BF9008951F920F920FB60F92A6
:1018D00011242F933F938F939F93AF93BF93809146
:1018E0007C0290917D02A0917E02B0917F023091A6
:1018F0007B0226E0230F2D3758F50296A11DB11D5E
:1019000020937B0280937C0290937D02A0937E02C1
:10191000B0937F028091800290918102A091820217
:10192000B09183020196A11DB11D80938002909316
:101930008102A0938202B0938302BF91AF919F91E5
:101940008F913F912F910F900FBE0F901F90189580
:1019500029E8230F0396A11DB11DD2CF1F920F922C
:101960000FB60F9211248F939F938091E100909175
:10197000E100937F9093E10083FF0FC01092E90094
:1019800091E09093EB001092EC0092E39093ED00C5
:101990001092850298E09093F00082FF22C093E0BD
:1019A0009093E9009091F200992319F09AE39093B3
:1019B000E80090916B02992341F090916B02915055
:1019C00090936B02911101C05D9A909184029923CA
:1019D00041F090918402915090938402911101C042
:1019E000289A84FF18C08091E2008E7E81608093E7
:1019F000E2008091E1008F7E8093E10080916C0293
:101A00008E7E806180936C029F918F910F900FBEAC
:101A10000F901F90189580FFF7CF8091E2008E7E87
:101A200080618093E2008091E1008E7E8093E100EE
:101A300080916C028E7E8160E5CF1F920F920FB66F
:101A40000F921124CF92DF92EF92FF920F931F9388
:101A50002F933F934F935F936F937F938F939F93B6
:101A6000AF93BF93EF93FF93CF93DF93CDB7DEB7E1
:101A70006C97DEBFCDBF1092E9008091E80083FF34
:101A800025C068E0CE0145960E94060482EF80934F
:101A9000E8008D8987FF39C09091E80090FFFCCF66
:101AA000982F907609F034C19E894F89588D2F89DF
:101AB000F88C911131C0803861F580916D0280936E
:101AC000F1001092F1008EEF8093E8006C960FB653
:101AD000F894DEBF0FBECDBFDF91CF91FF91EF91A4
:101AE000BF91AF919F918F917F916F915F914F9136
:101AF0003F912F911F910F91FF90EF90DF90CF902A
:101B00000F900FBE0F901F9018959EEF9093E800D6
:101B1000C7CF1092F100D5CF913059F48111D3CFB6
:101B20004130510581F680916D028D7F80936D0269
:101B3000CACF933049F48111C6CF4130510519F60F
:101B400080916D028260F2CF953041F48091E8007F
:101B500080FFFCCF20682093E300B5CF963009F0DA
:101B6000A9C00B8D1C8D22E01092E9001092690231
:101B700010926802F2122EC0109267021092660252
:101B80000E942E041F8299E09983FA8291E09E833D
:101B900090EA98879AEF99872091680230916902BC
:101BA000275F3F4F3C832B838D831092E900109277
:101BB000690210926802109367020093660249E07E
:101BC00050E0BE016F5F7F4F80E00E9435030E94AE
:101BD0002E0479CF10936702009366020E941A04C4
:101BE000DC0112960D911C910115110509F451C1EA
:101BF000D801ED91FC910480F581E02DBE016B5E72
:101C00007F4FC8010995009709F03EC1F801008592
:101C10001185EACFF3E0FF120EC08F89882309F403
:101C200040C0823061F440E86CE183E092E00E94C1
:101C30004F0F811148CF81E28093EB0047CF813075
:101C400029F440E864E08EEF91E0F1CF833099F71A
:101C50000E941A04DC011296ED90FC908E010F5F39
:101C60001F4F6801E114F10479F0D701ED91FC9167
:101C70000680F781E02DB801C7010995080F111DF5
:101C8000F701E084F184EECFD8011C92F6010190B7
:101C90000020E9F73197BF016C197D0940E0C601CA
:101CA000C6CF68EE71E0FB01449150E080E80E94ED
:101CB000350309CF973009F4BECF983021F481E085
:101CC0008093F10000CF993009F0FDCE837009F0C8
:101CD000B2CFEDE0F1E081E031E096E32191222303
:101CE00071F08093E9003093EB00DF0111972C91A4
:101CF0002093EC009093ED008F5F873079F78EE7AB
:101D00008093EA001092EA008F8980938502DBCEEF
:101D10008B8D9C8D1092E9001092690210926802DE
:101D20009093670280936602898D811192C08E899B
:101D30009D89913A49F4813209F07DCF47E050E026
:101D400064E071E080E0B3CF913209F074CF833268
:101D500069F48F89988DB0E0A0E0809300019093A2
:101D60000101A0930201B0930301ADCE803269F46A
:101D70008091E80082FFFCCF67E084E091E00E9460
:101D800006048BEF8093E8009ECE823209F09BCE52
:101D90008F8980930B01EEEFFFE7859194918B3F44
:101DA0009C4D51F1E0E0F8E0809104019091050133
:101DB000A0910601B0910701803B9440A105B105B7
:101DC000F1F480910B0180FD1AC0EE3F8AE0F80724
:101DD00089F587E797E791838083809160008093FE
:101DE0006A0288E19BE00FB6F894A89580936000A2
:101DF0000FBE9093600067CEEEEFFAE0D5CF808102
:101E000091818737974709F05ECEA8958091600051
:101E100088618093600080916A0280936000EE3F49
:101E20002AE0F20789F08091FE0A9091FF0A9183DF
:101E3000808349CE808191818737980751F29093B2
:101E4000FF0A8093FE0AC5CF1092FF0A1092FE0A85
:101E50003ACE0E941A04DC0112960D911C910115D4
:101E6000110509F4E8CED801ED91FC910190F081C3
:101E7000E02DBE016B5E7F4FC8010995811123CE15
:101E8000F80100851185EBCF181619060CF41BCE4E
:101E9000D2CEF1E0FF12BECE6CEE71E004CFEF9235
:101EA000FF920F931F93CF93DF93F82E192FE62EF7
:101EB000042F81E0860F880F0E94070383E00E94B1
:101EC0000703CF2DD12FEC0EFD2EF11CCE15DF0513
:101ED000B9F007FF13C0FE0184910E940703182F79
:101EE00080E00E940703812321968111EFCFDF91CB
:101EF000CF911F910F91FF90EF9008958881EDCFC2
:101F000081E0F5CFCF93DF93EB0188819981ABE935
:101F1000B2E011969C938E932A813B810697EC0147
:101F2000E881F981E556FD4F3183208312961D9299
:101F30001D921D921C92159781E290E094838383F9
:101F400081EA92E0948B838B1582158ADF91CF9181
:101F50000895CF93DF93CBE9D2E081E290E09C8FAC
:101F60008B8F1D8E1E8E1F8E86E090E0A0E0B0E06D
:101F700088A399A3AAA3BBA31CA21DA21EA21FA251
:101F80008FE591E0998F888F80E288A71AA619A61D
:101F90001DA681EA92E09CA78BA7AC016DEA71E0D7
:101FA000CE010E94820F89EB91E09983888383ECB4
:101FB00091E0998F888F1A8619861C861B861E864B
:101FC0001D86188A1F861A8A198A1C8A1B8A87E628
:101FD00091E09F838E8389EC92E09F8B8E8B88E0CB
:101FE0008D8BDF91CF910895DB018D919C9111979D
:101FF00090931A038093190312962D913C910697A2
:10200000DC01ED91FC91E75EFC4F3183208381E29E
:1020100090E0948383838BE193E0948B838B158290
:10202000158A0895CF93DF93C9E1D3E081E290E070
:10203000988F8F8B198E1A8E1B8E86E090E0A0E011
:10204000B0E08C8F9D8FAE8FBF8F18A219A21AA2FD
:102050001BA28FE591E09D8B8C8B80E28CA31EA24E
:102060001DA219A68BE193E098A78FA3AC0169ECA0
:1020700071E0CE010E94F40F85ED91E09983888391
:102080008FED91E09D8B8C8B1E821D8218861F82A6
:102090001A8619861C861B861E861D86188A1F8630
:1020A00087E691E09B838A8389EC92E09B8B8A8B05
:1020B00080E1898BDF91CF9108950F931F93CF9388
:1020C000DF93C9ECD2E01B821A8288EE93E0A0E095
:1020D000B0E08C839D83AE83BF8387E192E09983D8
:1020E00088838FEF9FEF9D878C87BE0189E193E006
:1020F0000E941210BE018BE992E00E94A90F07E92D
:1021000012E0F80113821282D183C0836DEF71E077
:1021100088ED91E00E94C814F80193838283E4E87B
:10212000F3E08EE7808381E0818389E292E09093FF
:10213000440380934303DF91CF911F910F91089542
:10214000CF93DF93CDB7DEB729970FB6F894DEBFF4
:102150000FBECDBF789484B5826084BD84B58160A4
:1021600084BD85B5826085BD85B5816085BD809162
:102170006E00816080936E001092810080918100DA
:1021800082608093810080918100816080938100D2
:1021900080918000816080938000809191008260B6
:1021A0008093910080919100816080939100809153
:1021B00090008160809390008091C1008460809342
:1021C000C1008091C10082608093C1008091C100F4
:1021D00081608093C1008091C30081608093C300BF
:1021E0008091C00082608093C0008091C2008160B5
:1021F0008093C20080917A00846080937A008091FD
:102200007A00826080937A0080917A008E7F80933A
:102210007A0080917A00806880937A00109285021B
:1022200010926D0210926C028091D70081608093B1
:10223000D70080EA8093D80089B58F7E89BD89B5A3
:10224000826089BD09B400FEFDCF61E070E080E0EE
:1022500090E00E94C9028091D8008F7C80618093B9
:10226000D8008091E000807F8093E0008091E100C1
:102270008E7E8093E1008DE08093E200559A209A53
:102280000E94740B6E9A6CE271E080E090E00E9414
:10229000C90280E292E00E94A60420E0222E20E003
:1022A000322E30E9C32E32E0D32E4BE0A42E42E092
:1022B000B42E5BE0852E52E0952E11E080917A02DB
:1022C000811133C183E493E00E94B00A082F882370
:1022D00009F41EC18CEE92E00E94A6046CE271E04B
:1022E00080E090E00E94C9020E94FB022B013C01A9
:1022F00083E493E00E940F0844E063EE71E083E41E
:1023000093E00E945D087C0183E493E00E9407084B
:10231000E114F10429F0F7018181807F803F91F081
:102320006AE070E080E090E00E94C9020E94FB0237
:1023300064197509860997096B3F71058105910537
:10234000B8F200E064EF71E080E090E00E94C90222
:1023500083ED92E0002309F4BEC083E493E00E9481
:102360000F0843E06CEE71E083E493E00E945D08A7
:102370007C0183E493E00E940708E114F10461F01A
:10238000F7018381833009F4CAC0813041F481812F
:10239000E3E0F0E0823439F4F0E0E0E004C0E2E0B1
:1023A000F0E08C30C9F7EE0FFF1FE753FD4FE590CB
:1023B000F49084EB92E00E948B04C7010E94A60473
:1023C00089E0E5EFF1E0DE01119601900D928A952A
:1023D000E1F71D820E94FB022B013C0100E083E437
:1023E00093E00E940F0845E0BE016F5F7F4F83E4DA
:1023F00093E00E945D087C0183E493E00E9407085B
:10240000EF2809F00F5F033088F46AE070E080E0A5
:1024100090E00E94C9020E94FB02641975098609B6
:1024200097096B3F710581059105C8F264EF71E072
:1024300080E090E00E94C902033020F488E992E035
:102440000E94A60489E0EEEFF1E0DE011196019012
:102450000D928A95E1F70E94FB022B013C0100E0FE
:1024600083E493E00E940F0849E0BE016F5F7F4F55
:1024700083E493E00E945D087C0183E493E00E9482
:102480000708EF2809F00F5F033088F46AE070E076
:1024900080E090E00E94C9020E94FB026419750965
:1024A000860997096B3F710581059105C8F264EFB4
:1024B00071E080E090E00E94C902033020F48BE7D5
:1024C00092E00E94A60483E493E00E94A708811191
:1024D00004C083E692E00E94A60483E493E00E9495
:1024E000F508E0916903F0916A03E730F105D4F44F
:1024F000FF27EE0FFF1FED5AFD4FE590F4908AE3A2
:1025000092E00E948B04C7010E94A60410937A02F5
:102510002114310409F4D2CE0E940000CECEE1E0B5
:10252000F0E041CFE7E0F0E0E4CF83E493E00E9405
:10253000F508811107C087E292E00E94A60410927C
:102540007A02E6CF80916703909168038095909519
:1025500080FFAAC10E94740BFC012081318131608F
:1025600031832083809167039091680380959095D3
:1025700081FFA1C10E94740BFC0120813181346074
:1025800031832083809167039091680380959095B3
:1025900082FF98C10E94740BFC0120813181386058
:1025A0003183208380916703909168038095909593
:1025B00083FF8FC10E94740BFC0120813181326046
:1025C0003183208380916703909168038095909573
:1025D00084FF86C10E94740B61E00E94190C8091F7
:1025E0006703909168038095909585FF7FC10E9455
:1025F000740B62E00E94190C80916703909168034C
:102600008095909586FF78C10E94740B64E00E94CB
:10261000190C80916703909168038095909587FFCE
:1026200071C10E94740B68E00E94190C80916703CD
:10263000909168038095909590FF6AC10E94740BF9
:10264000FC012081318120643183208380916703E4
:10265000909168038095909591FF61C10E94740BE1
:10266000FC012081318120683183208380916703C0
:10267000909168038095909592FF58C10E94740BC9
:10268000FC012081318120613183208380916703A7
:10269000909168038095909593FF4FC10E94740BB1
:1026A000FC01208131812062318320838091670386
:1026B000909168038095909594FF46C10E94740B99
:1026C000FC01208131812860318320838091670360
:1026D000909168038095909595FF3DC10E94740B81
:1026E000FC01208131812460318320838091670344
:1026F000909168038095909596FF34C10E94740B69
:10270000FC01208131812260318320838091670325
:102710009091680397FD2DC10E94740BFC012081EC
:1027200031812160318320838091690390916A0314
:10273000069709F480C080916F03882309F47BC059
:1027400080917C03E0907603811101C0E12CE69436
:10275000F0907703811101C0F12CF6940091780379
:10276000811101C000E070906B03069580917902A1
:10277000082E000C990B78161906C1F48091780286
:10278000082E000C990BE816190681F48091770247
:10279000082E000C990BF816190641F48091760268
:1027A000082E000C990B08171906B9F070927902DF
:1027B000E0927802F0927702009376020E94740B06
:1027C000FC01738220E824830E94740BFC0190E8D2
:1027D0009E199F0D95830058068384E08E1540F462
:1027E0000E94740BFC012081318120683183208399
:1027F000F4E0FF1540F40E94740BFC01208131814C
:102800002064318320830E94740BFC01208131817C
:102810002E7F318320830E94740BFC012081318143
:102820002D7F318320830E94740BFC012081318134
:102830002F7E318320830E94740B7C0180916E0275
:10284000811129C010938A0210938B02D0928D02BD
:10285000C0928C0210928F0210928E02B092870268
:10286000A09286021092920210929102109294020B
:10287000109293021093950210939602F1ECF0934C
:1028800090020E941A040E94340290928702809261
:10289000860210936E028091890248E050E0B701F1
:1028A00080640E946C0334CE0E94740BFC01208172
:1028B00031813E7F55CE0E94740BFC012081318115
:1028C0003B7F5ECE0E94740BFC0120813181377FFB
:1028D00067CE0E94740BFC01208131813D7F70CE58
:1028E0000E94740B61E00E945C0A79CE0E94740B16
:1028F00062E00E945C0A80CE0E94740B64E00E9439
:102900005C0A87CE0E94740B68E00E945C0A8ECE3F
:102910000E94740BFC01208131812F7B95CE0E9497
:10292000740BFC01208131812F779ECE0E94740BA5
:10293000FC01208131812F7EA7CE0E94740BFC0107
:10294000208131812F7DB0CE0E94740BFC0120814B
:102950003181277FB9CE0E94740BFC012081318127
:102960002B7FC2CE0E94740BFC01208131812D7F10
:10297000CBCE0E94740BFC01208131812E7FD2CE00
:102980008BE992E00E94B70689E193E00C94FF0680
:102990000F931F93CF93DF93009759F4611571053F
:1029A00041F4F0E0E0E0CF01DF91CF911F910F9172
:1029B00008958B01EC016EE070E081E090E00E94F0
:1029C0001315FC01892B69F380E883830115110538
:1029D00071F01387028781E8838380918603909149
:1029E0008703892B21F4F0938703E09386032097D4
:1029F000D1F2D187C08783818260838380918803ED
:102A000090918903892B79F6F0938903E0938803E9
:102A100080918A0390918B03892B29F6F0938B0385
:102A2000E0938A03C0CF0F931F93CF93DF93869FCA
:102A30008001879F100D969F100D1124C8010E94E0
:102A40002F15EC01009729F0A80170E060E00E94CA
:102A50005416CE01DF91CF911F910F9108950F93DE
:102A60001F93CF93DF938230910510F482E090E0C2
:102A7000E0918E03F0918F0330E020E0B0E0A0E021
:102A8000309799F42115310509F44AC0281B390BF8
:102A900024303105D8F58A819B816115710589F152
:102AA000FB0193838283FE0111C040815181028129
:102AB000138148175907E0F04817590799F4109700
:102AC00061F012960C93129713961C933296CF01D5
:102AD000DF91CF911F910F91089500938E03109372
:102AE0008F03F4CF2115310551F04217530738F009
:102AF000A901DB019A01BD01DF01F801C1CFEF019E
:102B0000F9CF90938F0380938E03CDCFFE01E20F18
:102B1000F31F819391932250310939832883D7CFB2
:102B200020918C0330918D03232B41F420911501CA
:102B30003091160130938D0320938C032091130163
:102B4000309114012115310541F42DB73EB7409164
:102B5000170150911801241B350BE0918C03F09163
:102B60008D03E217F307A0F42E1B3F0B281739073C
:102B700078F0AC014E5F5F4F2417350748F04E0FD9
:102B80005F1F50938D0340938C03819391939FCF4C
:102B9000F0E0E0E09CCFCF93DF930097E9F0FC01F9
:102BA000329713821282A0918E03B0918F03ED01B0
:102BB00030E020E01097A1F420813181820F931F33
:102BC00020918C0330918D032817390709F061C0DB
:102BD000F0938D03E0938C03DF91CF910895EA0188
:102BE000CE17DF07E8F54A815B819E01411551054B
:102BF000B1F7E901FB83EA8349915991C40FD51FCD
:102C0000EC17FD0761F4808191810296840F951F76
:102C1000E90199838883828193819B838A83F0E091
:102C2000E0E012968D919C9113970097B9F52D9144
:102C30003C911197CD010296820F931F20918C0336
:102C400030918D032817390739F6309751F51092D6
:102C50008F0310928E03B0938D03A0938C03BCCF8F
:102C6000D383C28340815181840F951FC817D90730
:102C700061F44E5F5F4F88819981480F591F5183DE
:102C800040838A819B81938382832115310509F0DA
:102C9000B0CFF0938F03E0938E039ECFFD01DC0154
:102CA000C0CF13821282D7CFDC0101C06D93415097
:102CB0005040E0F70895EE0FFF1F0590F491E02DCE
:102CC000099411E0CDEAD1E004C0FE010E945B1638
:102CD0002196CE3AD107C9F7F894FFCFFFFFFFFF47
:102CE00000E100000000000000C180810000000041
:102CF000009003800018000000000000000000E8C1
:102D0000FFE8FF00000000000014000000000000C9
:102D1000000000ECFFECFF00000000000001430099
:102D2000005A5A5A5A5A014200FFFF000201040891
:102D300003080607080805000000001607580A00E7
:102D4000000000CE064A0A850682067F067C069EA3
:102D500005710636061D0604062405C505A10502F3
:102D60000000000000E1064C0AFEFFFEFF0000CF5D
:102D7000064E0A06000000000099063E0AFAFFFA15
:102D8000FF00008706400AB9011F012901C301188D
:102D90000000000000B706280AE8FFE8FF0000C4B2
:102DA00006320AD50133013D01DF011400000000A5
:102DB00000FF06140AECFFECFF00000C071E0A01DE
:102DC0004300015A5A5A5A5A0145005A5A5A5A5AF5
:102DD0005A014400010300000000014F00FFFF03FF
:102DE000000000000000001807910756073B07008D
:102DF00000000075045F04C304B8040A05C804E6B3
:102E000004000000000F0807080008B00A0D0A00BF
:1070000055C000006EC000006CC000006AC00000E7
:1070100068C0000066C0000064C0000062C00000DC
:1070200060C000005EC00000FCC400005AC0000048
:1070300058C0000056C0000054C0000052C00000FC
:1070400050C000005DC000004CC000004AC00000FD
:1070500048C0000046C0000044C0000042C000001C
:1070600040C000003EC000003CC000003AC000002C
:1070700038C0000036C0000034C0000032C000003C
:1070800030C000002EC000002CC000002AC000004C
:1070900028C0000026C0000024C0000022C000005C
:1070A00020C000001EC000001CC0000011241FBE34
:1070B000CFEFDAE0DEBFCDBF11E0A0E0B1E0E2E467
:1070C000FFE702C005900D92A83BB107D9F711E088
:1070D000A8EBB1E001C01D92A13DB107E1F74FD38C
:1070E0002EC78ECFF89410926F001092810081E02D
:1070F00085BF15BE47985D9A289A0C9400000895A4
:107100001F920F920FB60F9211242F938F939F937C
:10711000EF93FF9310928500109284008091B80144
:107120009091B901009741F001979093B901809334
:10713000B801892B09F45D9A8091BA019091BB0145
:10714000009741F001979093BB018093BA01892B7E
:1071500009F4289A8091BE019091BF010196909305
:10716000BF018093BE01E0E0F0E0859194918F5FD4
:107170009F4F49F08091BC019091BD010196909381
:10718000BD018093BC01FF91EF919F918F912F9151
:107190000F900FBE0F901F90189584E08093E90028
:1071A0000DC08091E8008B778093E80003C08EB318
:1071B000882351F08091E80082FFF9CF8091E800A8
:1071C00085FFEFCF8091F1000895982F83E08093A1
:1071D000E9008091E80085FD0DC08091E8008E7780
:1071E0008093E80003C08EB3882369F08091E800A3
:1071F00080FFF9CF9093F1005D9884E690E0909342
:10720000B9018093B80108954F925F926F927F9277
:107210008F929F92AF92BF92CF92DF92EF92FF92A6
:107220000F931F93CF93DF9384E08093E9008091C5
:10723000E80082FF57C2289884E690E09093BB0153
:107240008093BA01AADF182F853481F48CEA9DE07F
:107250009093BD018093BC0107B600FCFDCFF99966
:10726000FECF81E180935700E89503C0843519F47F
:1072700094DF8DE00DC28C34E1F38035D1F3843797
:1072800021F484E4A2DF80E003C2813611F489E5B1
:10729000FFC18134B1F481DF182F7FDF90E0880FC8
:1072A000991FAA2797FDA095BA2F312F330F20E001
:1072B000442737FD4095542F822B932BA42BB52BBD
:1072C000B8C1803711F483E5E3C1833549F4C0E0E8
:1072D000D1E089917ADF21E0C730D207D1F7D9C157
:1072E000863521F481E371DF80E3D2C1833731F445
:1072F00087E86BDF85E969DF8EE1CAC18536B9F4BD
:10730000E0E0F0E093E085E090935700E89507B661
:1073100000FCFDCF80935700E89507B600FCFDCF39
:10732000E058FF4FA0E7E030FA0771F7A2CF8237AD
:1073300039F4E1E0F0E089E0809357008491A8C13E
:10734000863439F4E0E0F0E089E0809357008491DE
:107350009FC18E3439F4E3E0F0E089E08093570078
:10736000849196C1813539F4E2E0F0E089E08093C0
:10737000570084918DC1823631F489E526DF80E0A3
:1073800024DF80E885C1823419F0873609F0E5C032
:107390001092BD011092BC0100DF082FFEDEF82E16
:1073A000FCDE682E8554823008F071C1902F80E099
:1073B000CF2DD0E0C82BD92B10926F00173609F0D3
:1073C0004BC081E180935700E895DD24CC24C39421
:1073D0003FC0E090C101F090C2010091C301109143
:1073E000C401B6E46B16D9F4ED2DF0E0EE29FF29C7
:1073F000E4918E2FEADEDD2081F082E090E0A0E0D3
:10740000B0E0E80EF91E0A1F1B1FE092C101F092C6
:10741000C2010093C3011093C401DC2418C0D80139
:10742000C701B695A7959795879573D5CEDE82E06F
:1074300090E0A0E0B0E0E80EF91E0A1F1B1FE092EA
:10744000C101F092C2010093C3011093C4012197BE
:10745000209709F0BECF7DC08090C1019090C201FD
:10746000A090C301B090C40196E4691609F05DC014
:1074700083E0F40180935700E89507B600FCFDCF48
:1074800054C0F6E46F1661F5772031F1E090C10148
:10749000F090C2010091C3011091C4017EDED82E8C
:1074A000CC24852D90E08C299D29F7010C01409278
:1074B0005700E895112482E090E0A0E0B0E0E80EEB
:1074C000F91E0A1F1B1FE092C101F092C201009336
:1074D000C3011093C40102C060DE582E742423C07F
:1074E000E090C101F090C2010091C3011091C4016C
:1074F00016950795F794E79450DE682FC70111D5CC
:107500008091C1019091C201A091C301B091C401C9
:107510000296A11DB11D8093C1019093C201A09359
:10752000C301B093C401219704C055247724442497
:107530004394209709F0A5CF96E4691641F485E0BD
:10754000F40180935700E89507B600FCFDCF8DE06D
:107550003CDE82E080936F009CC0833471F4009124
:10756000C1011091C20119DE90E021E0F8010C0187
:1075700020935700E89511247CCE833619F5E090CE
:10758000C101F090C2010091C3011091C40105DE58
:10759000F701E16090E021E00C0120935700E895AD
:1075A000112482E090E0A0E0B0E0E80EF91E0A1F8E
:1075B0001B1FE092C101F092C2010093C30110931E
:1075C000C40157CE8D3661F4E091C101F091C20142
:1075D00085E080935700E89507B600FCFDCF49CEC3
:1075E000823551F4E091C101F091C20105911491ED
:1075F000812FEBDD802F4CC0843421F5E090C10158
:10760000F090C2010091C3011091C4011695079535
:10761000F794E794C2DD682FC70183D48091C1013C
:107620009091C201A091C301B091C4010296A11D25
:10763000B11D8093C1019093C201A093C301B09387
:10764000C40117CE843609F5E090C101F090C20163
:107650000091C3011091C401D801C701B695A79547
:107660009795879556D4B1DD82E090E0A0E0B0E038
:10767000E80EF91E0A1F1B1FE092C101F092C20121
:107680000093C3011093C40104C08B3111F08FE348
:107690009CDD83E08093E9009091E8008091E80010
:1076A0008E778093E80095FF04C010C08EB38823C6
:1076B000C9F08091E80080FFF9CF8091E8008E77D3
:1076C0008093E80003C08EB3882361F08091E800C6
:1076D00080FFF9CF84E08093E9008091E8008B7708
:1076E0008093E800DF91CF911F910F91FF90EF9071
:1076F000DF90CF90BF90AF909F908F907F906F90D2
:107700005F904F9008959091C901892F8F778132B2
:1077100049F58091CA018032A1F0813219F5913A80
:1077200009F58091E800877F8093E8008CE091E084
:1077300067E070E025D28091E8008B778093E800C5
:107740000895913279F48091E800877F8093E80072
:107750008CE091E067E070E077D28091E8008E776E
:107760008093E800089582E061EC42E0D1D083E0AC
:1077700061E842E1CDD084E060E842E1C9C01F93F6
:10778000209100081092000844B714BE88E10FB69B
:10779000F89480936000109260000FBE80E8E0E0F3
:1077A000F0E00FB6F89480936100E09361000FBEA3
:1077B00031E035BF92E095BF3F9A209A559A809369
:1077C00061001092610047985D9A289A1092890092
:1077D0008AEF8093880090936F0083E0809381000C
:1077E000859194918F5F9F4F11F03093C001942F3A
:1077F00041FF19C0809109012817A9F08093000862
:10780000789480911301882339F08091BE01909182
:10781000BF0188579140C8F310920008F89481E0A6
:10782000809313010CC090FF04C08091C001882395
:1078300051F493FF09C080910901281729F0809124
:10784000C001882309F04EDCD4D078941092BD0199
:107850001092BC011EEF20C0D7DC49D38091BC013F
:107860009091BD01815A9F4010F0109213018091B8
:10787000C5019091C60101969093C6018093C50100
:10788000292F97FF03C0512F591B252F220F28178F
:1078900010F4479801C0479A809113018823E1F6BC
:1078A0008091E00081608093E0001CDC80E090E04B
:1078B0001F910895FA01923049F0933061F09130B0
:1078C000F9F484E191E022E130E01EC086E291E02B
:1078D0002EE330E019C0882329F484E691E024E007
:1078E00030E012C0813029F488E691E022E230E0F5
:1078F0000BC0823029F48CE891E02AE230E004C029
:1079000080E090E020E030E091838083C901089519
:107910008093E9008091EB0081608093EB001092EE
:10792000ED006093EC004093ED008091EE00881F25
:107930008827881F08958091C90188238CF403C08B
:107940008EB38823B1F08091E80082FFF9CF809157
:10795000E8008B778093E80008958EB3882349F080
:107960008091E80080FFF9CF8091E8008E778093C6
:10797000E8000895EF92FF920F931F9345D04CD0EB
:1079800008ED10E0F80180818F7780838081806826
:10799000808380818F7D808319BC1EBA1092C701BD
:1079A00080EEE82EF12CF70180818B7F8083F80137
:1079B00080818160808380E060E042E0A9DFE1EEC9
:1079C000F0E080818E7F8083E2EEF0E08081816054
:1079D0008083808188608083F70180818E7F8083AF
:1079E000F8018081806180831F910F91FF90EF905B
:1079F0000895E7EDF0E08081816080838AE482BFB2
:107A000081E08093C801B6CFE8EDF0E080818E7F01
:107A100080831092E20008951092DA001092E10043
:107A200008951F920F920FB60F9211242F933F9338
:107A30004F935F936F937F938F939F93AF93BF9376
:107A4000EF93FF938091DA0080FF1AC08091D800F5
:107A500080FF16C08091DA008E7F8093DA008091DB
:107A6000D90080FF0AC019BC82E089BD09B400FEBC
:107A7000FDCF81E08EBB3AD203C019BC1EBA36D20C
:107A80008091E10080FF17C08091E20080FF13C069
:107A90008091E2008E7F8093E2008091E20080611D
:107AA0008093E2008091D80080628093D80019BC56
:107AB00085E08EBB1BD28091E10084FF2BC08091BA
:107AC000E20084FF27C019BC82E089BD09B400FE32
:107AD000FDCF8091D8008F7D8093D8008091E10008
:107AE0008F7E8093E1008091E2008F7E8093E200A0
:107AF0008091E20081608093E2008091C701882339
:107B000031F48091E30087FD02C081E001C084E090
:107B10008EBBECD18091E10083FF21C08091E20017
:107B200083FF1DC08091E100877F8093E10082E0A8
:107B30008EBB1092C7018091E1008E7F8093E1009F
:107B40008091E2008E7F8093E2008091E20080616C
:107B50008093E20080E060E042E0DADEC7D1FF918E
:107B6000EF91BF91AF919F918F917F916F915F91B5
:107B70004F913F912F910F900FBE0F901F9018952E
:107B80009C014091CF015091D0014617570718F43E
:107B9000F90190E044C06115710511F0AB01F8CF17
:107BA0008091E8008E778093E80040E050E0F0CFCD
:107BB0008EB3882309F444C0853009F443C0809112
:107BC000E80083FF02C081E008958091E80082FD13
:107BD00031C08091E80080FF22C08091F300909135
:107BE000F200782F60E0292F30E0262B372B07C0DA
:107BF00081918093F100415050402F5F3F4F4115DC
:107C0000510519F02830310598F390E028303105FE
:107C100009F491E08091E8008E778093E8004115A7
:107C2000510531F6992321F605C08EB3882341F022
:107C3000853041F08091E80082FFF7CF80E0089521
:107C400082E0089583E008959C016115710529F48F
:107C50008091E8008B778093E800F90126C08EB30D
:107C6000882391F1853091F18091E80083FF02C073
:107C700081E008958091E80082FFF1CF06C08091F5
:107C8000F10081936150704059F02091F300809190
:107C9000F200322F20E090E0822B932B892B79F792
:107CA0008091E8008B778093E80061157105B9F643
:107CB00005C08EB3882341F0853041F08091E80003
:107CC00080FFF7CF80E0089582E0089583E0089573
:107CD0000F931F93DF93CF9300D0CDB7DEB7E9ECBE
:107CE000F1E08091F100819381E0E13DF807C9F76F
:107CF0000ADD8091E80083FFE4C08091C901909182
:107D0000CA01953009F46DC0963040F4913081F18C
:107D1000913070F0933009F0D4C02AC0983009F443
:107D2000A3C0993009F4B2C0963009F0CAC07CC033
:107D3000803809F4C6C0823809F0C3C08091CD01F3
:107D400087708093E9008091EB001092E900209108
:107D5000E800277F2093E80090E025E0969587953E
:107D60002A95E1F781708093F1001092F10087C0AD
:107D7000882319F0823009F0A4C08F71823009F095
:107D8000A0C08091CB01882331F52091CD012770CF
:107D900009F497C02093E9008091EB0080FF1BC09D
:107DA000933021F48091EB00806213C08091EB004E
:107DB00080618093EB0081E090E002C0880F991F02
:107DC0002A95E2F78093EA001092EA008091EB0096
:107DD00088608093EB001092E9008091E800877F33
:107DE00051C0882309F06DC01091CB011F770FB7E8
:107DF000F8948091E800877F8093E8009CDD809173
:107E0000E80080FFFCCF8091E3008078812B809395
:107E1000E30080688093E300112311F482E001C045
:107E200083E08EBB0FBF4DC08058823008F049C040
:107E30008091CB019091CC016091CD01AE014F5F5B
:107E40005F4F38DDBC01009709F43BC08091E8002A
:107E5000877F8093E80089819A8192DE8091E80093
:107E60008B778093E8002DC0803859F58091E80029
:107E7000877F8093E8008091C7018093F100809113
:107E8000E8008E778093E80056DD1BC08823C9F494
:107E90009091CB019230A8F48091E800877F809385
:107EA000E8009093C70147DD8091C701882331F432
:107EB0008091E30087FD02C081E001C084E08EBBB9
:107EC00052DC8091E80083FF0AC08091EB00806261
:107ED0008093EB008091E800877F8093E8000F900B
:107EE0000F90CF91DF911F910F91089508951F93E7
:107EF0008EB3882361F01091E9001092E90080911F
:107F0000E80083FF01C0E4DE17701093E9001F91C1
:107F10000895F999FECF92BD81BDF89A992780B551
:107F20000895262FF999FECF1FBA92BD81BD20BDBD
:107F30000FB6F894FA9AF99A0FBE01960895F8943C
:107F4000FFCF4341544552494E410077000800009D
:107F500000000000080112011001020000084F1B80
:107F6000079201000201000109023E0002010080A7
:107F7000320904000001020201000524001001047E
:107F80002402040524060001070582030800FF09F6
:107F9000040100020A0000000705040210000107A6
:107FA0000583021000010403090422034C00690048
:107FB0006C007900500061006400550053004200DD
:107FC00020002000200020002000200000002A03C4
:107FD00053007000610072006B00460075006E0077
:107FE000200045006C0065006300740072006F00A3
:0A7FF0006E006900630073000000DA
:00000001FF
